:040000008031E8283B
:100008007E14803120007F08EF00911E7128911224
:1000180023001908613A031D1C282100E608031D66
:100028001C28E601E60A270098129831E920803159
:1000380023001908623A031D2F282100E608031D32
:100048002F289B31F02380318531C0258031220053
:10005800AC01AD01C001230019084F3A031D59280E
:100068002100E608031D59285108013A031D4228BA
:10007800D1012200EA01E601E0015628D101D10AA6
:100088004B302000EE006E082200EA004B302000C2
:10009800EE006E082200E6004B302000EE006E08ED
:1000A8002200E000973160278031230019082B3A9D
:1000B800031D61282200BD01BD0A230019082D3A3D
:1000C800031D69282200BC01BC0A23001908453A0F
:1000D800031D71282200BD01BC012700191E8D28AF
:1000E80019129931F321803127001912210066086D
:1000F800013A031D8628E6012700981698317620D4
:1001080080318D28E601E60A270098129831E92007
:1001180080312700991EA02899129A312422803113
:10012800270099129B31F02380318531C025803119
:100138002200AC01AD01C0010B1DDB280B110630FC
:100148002000950001302200AE070030AF3D01309D
:10015800B0070030B13D0130AC070030AD3D013093
:10016800B2070030B33D07302F02D13003192E02F9
:10017800031CCC28AE01AF01923134228031813189
:100188001D2180319C317824803182319B2280313D
:100198004E3022002D02213003192C02031CDB28CB
:1001A800AC01AD01C001C00A9A31C02280312000E3
:1001B800921EE328921222000F13A531FF2520007A
:1001C8006F08FF007E1009008031EA28CD308400D6
:1001D80000308500103098310020803120308400B4
:1001E800013085002730983100208031A03084000C
:1001F800013085002030983100208031F0308400B3
:1002080087308500DD308600003087000E30A5314C
:100218007825803151308400983085004730860039
:10022800013087002530A53178257E1020009931CE
:100238006829A6318626813123003F08013A031D2B
:10024800F02922006308013A031DB229E301E10104
:10025800E10A4A08F8004B08F9004C08FA00A531F1
:10026800EB25813178082000C7007908C8007A0892
:10027800C9009A30C4009930C5003F30C6008831A3
:100288000D20813120004408D4004508D5004608D7
:10029800D60095312F258131200056082200CF0045
:1002A800200055082200CE00200054082200CD006E
:1002B80021005F08A631A026813178082000C700F8
:1002C8007908C8007A08C9009A30C4009930C50076
:1002D8003F30C60088310D20813120004408D40009
:1002E8004508D5004608D60095312F2581312000D4
:1002F8005408E40064082100E00022004D08F800DA
:100308004E08F9004F08FA00A531EB25813178082D
:100318002000C7007908C8007A08C9005A30C4000C
:10032800D030C5004330C60088310D20813120000F
:100338004408D4004508D5004608D60095312F2535
:10034800813120005508E301E3075408E201E20780
:1003580099313D218131A631862681312200470815
:10036800CD004808CE004908CF0059082000E40015
:1003780064082100E0006008A631A02681317808D1
:100388002000A7007908A8007A08A9009A30A400DC
:100398009930A5003F30A60089315F2181312000C6
:1003A8002408BA002508BB002608BC000030B700A6
:1003B800A030B800C130B9008431CA24813120008E
:1003C8003708D4003808D5003908D60095312F25CC
:1003D8008131200054088D2A22006108013A031D4A
:1003E8007D2AE101E301E30A4D08F8004E08F9000F
:1003F8004F08FA00A531EB25813178082000A700C5
:100408007908A8007A08A9009A30A4009930A500B4
:100418003F30A60089315F21813120002408D400B3
:100428002508D5002608D60095312F2581312000D2
:1004380056082200CC00200055082200CB002000DE
:1004480054082200CA0021006008A631A026813184
:1004580078082000A7007908A8007A08A9009A302F
:10046800A4009930A5003F30A60089315F21813171
:1004780020002408D4002508D5002608D600953188
:100488002F25813120005408E40064082100DF0092
:1004980022004A08F8004B08F9004C08FA00A53178
:1004A800EB25813178082000C7007908C8007A0850
:1004B800C9005A30C400D030C5004330C600883166
:1004C8000D20813120004408D4004508D500460895
:1004D800D60095312F25813120005508E301E30727
:1004E8005408E201E20799313D218131A63186267F
:1004F800813122004708CA004808CB004908CC00CF
:1005080059082000E40064082100DF005F08EC3E81
:100518002000E40064082100E100E1080319E1017A
:100528002200C008031D08009B31F02308002200A8
:1005380023082000D400220024082000D50022002F
:1005480025082000D60095312F2582312000560835
:10055800E4005508E3005408E200E5018D31B325B5
:100568008231220053082000A700220054082000EE
:10057800A800220055082000A9005030A400C3306C
:10058800A5004730A60089315F2182312000240868
:10059800D4002508D5002608D60095312F258231AC
:1005A80020005608E4005508E3005408E20005302E
:1005B8002100A00020082000E5008D31B3258231FC
:1005C800220056082000A700220057082000A80093
:1005D800220058082000A9005030A400C330A5000C
:1005E8004730A60089315F21823120002408D400D9
:1005F8002508D5002608D60095312F258231200000
:100608005608E4005508E3005408E20005302100CC
:10061800A00020082000E5008D31B325823122009A
:1006280050082000A700220051082000A80022003E
:1006380052082000A9005030A400C330A50047305C
:10064800A60089315F21823120002408D4002508C2
:10065800D5002608D60095312F258231200056086E
:10066800E4005508E3005408E20005302100A0002A
:1006780020082000E5008D31B3258231220038089A
:100688002000E200220039082000E300E401E5012F
:100698008D31B325823122003A082000E200220081
:1006A8003B082000E300E401E5018D31B3258231E8
:1006B80021005F08A000A101A20120082000E2009B
:1006C800210021082000E300210022082000E40086
:1006D800E5018D31B325823121006008A000A10118
:1006E800A20120082000E200210021082000E300E8
:1006F800210022082000E400E5018D31B325823174
:1007080021006108A000A101A20120082000E20048
:10071800210021082000E300210022082000E40035
:10072800E5018D31B3258231E830F0000330F10066
:100738000030F20022002008F3002108F40022080B
:10074800F5009C313424823170082000E2007108E1
:10075800E3007208E400E5018D31B3258231210000
:100768006508A000A101A20120082000E2002100E4
:1007780021082000E300210022082000E400E50110
:100788008D31B32582310D3023009A002000111ECF
:10079800CA2B0A3023009A002000111A0800D02B17
:1007A80021002B08B1002C08B2002D08B30003105B
:1007B800320D330DB4003408B7002E08B1002F08ED
:1007C800B2003008B3000310320D330DB400340802
:1007D800B60037080319FC2B360837020318032C18
:1007E8003703FF3A3607B10019303102031C032CD6
:1007F8002E08AB002F08AC003008AD000800360802
:1008080003190800370836020318122C3603FF3A7A
:100818003707B10019303102031808000630B1005B
:100828003108B500AD1BB517B01B3517AC17FF3035
:10083800AB05FF30AC050030AD05AF17FF30AE0596
:10084800FF30AF050030B0053608370203184E2CCC
:100858000130AE35AF0DB00D890B2D2C0130B6022D
:10086800360837060319492C0130B502350807390F
:100878000319492C2C2C0130AD36AC0CAB0C890B70
:10088800402C0130B1003108B70737083606031984
:10089800732C3F2C370836020318732C0130AB3504
:1008A800AC0DAD0D890B532C0130B7023608370655
:1008B80003196F2C0130B5023508073903196F2C5D
:1008C800522C0130B036AF0CAE0C890B662C0130BF
:1008D800B1003108B60737083606031D652CB51F69
:1008E800852CFF30AB06FF30AC06FF30AD0601307B
:1008F800AB07003003180130AC0700300318013093
:10090800AD07351F972CFF30AE06FF30AF06FF301E
:10091800B0060130AE07003003180130AF070030D1
:1009280003180130B007B5012B08AE072C08AF3DFE
:100938002D08B03DB01FB22CFF30AE06FF30AF0619
:10094800FF30B0060130AE07003003180130AF07A2
:10095800003003180130B007B501B50A2E08A3000E
:100968002F08A4003008A5003708B1003108A600F8
:100978003508B2003208A7009F319F2721002308BD
:10098800AB002408AC002508AD000800200037089B
:10099800BD003808BE003908BF0003103E0D3F0DEA
:1009A800C0004008C3003A08BD003B08BE003C0830
:1009B800BF0003103E0D3F0DC0004008C2004308B1
:1009C8000319F22C420843020318F92C4303FF3A97
:1009D8004207BD0019303D02031CF92C3A08B70044
:1009E8003B08B8003C08B900080042080319080091
:1009F800430842020318082D4203FF3A4307BD008B
:100A080019303D02031808000630BD003D08C1003A
:100A1800B91BC117BC1B4117B817FF30B705FF300A
:100A2800B8050030B905BB17FF30BA05FF30BB0564
:100A38000030BC05420843020318442D0130BA3582
:100A4800BB0DBC0D890B232D0130C20242084306A1
:100A580003193F2D0130C1024108073903193F2D01
:100A6800222D0130B936B80CB70C890B362D013060
:100A7800BD003D08C307430842060319692D352DFB
:100A8800430842020318692D0130B735B80DB90D76
:100A9800890B492D0130C302420843060319652D0D
:100AA8000130C102410807390319652D482D01306D
:100AB800BC36BB0CBA0C890B5C2D0130BD003D085F
:100AC800C20743084206031D5B2DC11F7B2DFF3063
:100AD800B706FF30B806FF30B9060130B707003057
:100AE80003180130B807003003180130B907411F57
:100AF8008D2DFF30BA06FF30BB06FF30BC06013033
:100B0800BA07003003180130BB0700300318013062
:100B1800BC07C1013708BA073808BB3D3908BC3DD6
:100B2800BC1FA82DFF30BA06FF30BB06FF30BC063D
:100B38000130BA07003003180130BB070030031832
:100B48000130BC07C101C10A3A08F0003B08F100B6
:100B58003C08F2004308BD003D08F3004108BE0010
:100B68003E08F4009F313F2770082000B700710845
:100B7800B8007208B9000800210068082000A40025
:100B8800A501A409A509A40A0319A50A2100670853
:100B980020002407F60025080318250AF70021007D
:100BA80068082000A600A701A609A709A60A031934
:100BB800A70A2100650820002607F0002708031867
:100BC800270AF1006430F2000030F300A73125272E
:100BD80085317108F901F9077008F801F8079C31A7
:100BE800C824853176082000A80028082100E900DB
:100BF8006908643A031D092E0A302000A40024085D
:100C08002100DD008C313B2408006430210069029A
:100C180003181B2E57306902031C1B2E09302000B5
:100C2800A40024082100DD008C313B240800573043
:100C38002100690203182D2E4B306902031C2D2E4A
:100C480008302000A40024082100DD008C313B245A
:100C580008004B302100690203183F2E3E3069021C
:100C6800031C3F2E07302000A40024082100DD00CB
:100C78008C313B2408003E30210069020318512EB4
:100C880032306902031C512E06302000A4002408CB
:100C98002100DD008C313B2408003230210069023C
:100CA8000318632E25306902031C632E05302000CB
:100CB800A40024082100DD008C313B2408002530E5
:100CC800210069020318752E19306902031C752E5C
:100CD80004302000A40024082100DD008C313B24CE
:100CE80008001930210069020318872E0C306902A8
:100CF800031C872E03302000A40024082100DD00F7
:100D08008C313B2408000C30210069020318982E0E
:100D180069080319982E02302000A4002408210035
:100D2800DD008C313B2408002100E908031D080080
:100D3800DD01DD0A8C313B240800F83021009900E0
:100D4800A83020008C008D018E018F019001273082
:100D580021008C0013308D00B0308E002F308F00B2
:100D680007309000273023008C0011308D008E0151
:100D780003308F000730900022001D131D10210042
:100D88000E158E14633020009B000F302500930051
:100D98000F309A00910198012000911005309C00B5
:100DA800911CD42E21000E118E10CF3022009700F6
:100DB800813021009D00F3309E000F309F00883065
:100DC80022009800B030990084309100AC30920035
:100DD8002000921221009216270018161912981650
:100DE80099128B150B178B174030200098001110A3
:100DF8009601970118142100951295111508F839D4
:100E080003389500200095010B118B163330230011
:100E18009B001E119F111E129D179E1621009116F0
:100E280023001D162100D201103052020318302F62
:100E38005208A03E86000130870081015208B03E6A
:100E480086000130870081010130A8002808D207F8
:100E580010305202031C1C2F2300A001A00AA3017A
:100E6800A30AA401A40AA501A50AA901A90AAA011D
:100E7800AA0AAC01AC0AAE01AE0AA6313F268631F9
:100E880022004208013A031D552FA731C027863199
:100E9800A731E027863198310F2086319931C42156
:100EA800863188310020863122006B082100A80095
:100EB8002808A300630898312F2086312100A90053
:100EC8002908D70099311321080022006408013A43
:100ED800031D812FE401E201E20A25009101980136
:100EE80022008C170C12B201B3012100D601053083
:100EF8002300C00040082100D50012302100B300B3
:100F08000330B4003A30B5006A08A631EE268731BE
:100F180021002B08B6002C08B7002D08B80088312E
:100F2800B620873121003308C3003408C4003508CF
:100F3800C500220033082100AC01AC0722003208AA
:100F48002100AB01AB07A6311326873121002B08FE
:100F5800C6002C08C7002D08C8009B3138238731EC
:100F68000318BC2F2200B201B3012100D601D60A12
:100F780021005608013A031D080057082300C00045
:100F8800C101C009C109C00A0319C10A21006308C7
:100F980023004007C20041080318410AC300430860
:100FA800803AC40080304402031DDE2F210055081A
:100FB80023004202031CE72F210057082300C0002A
:100FC80040082100D507210055082500910021007F
:100FD800630825009800080004344B3478346434DE
:100FE8006434013464344B341E3401342D340F34EA
:040FF80032340A3451
:101000008B13230091019513151315141308210058
:10101000A3002308D1008B17080020004708CA004E
:101020004808CB004908CC0003104B0D4C0DCD00F7
:101030004D08D200D208031D24280030C40000301F
:10104000C5000030C60008004408CA004508CB00AF
:101050004608CC0003104B0D4C0DCD004D08D300BD
:10106000D308031D3A280030C4000030C50000300A
:10107000C60008000030CF000030D0000030D100A2
:1010800089305307CA004A08D2024708CA004808F4
:10109000CB004908CC001030CC36CB0CCA0C890BE5
:1010A0004C284A08CD004D08D3004408CA00450822
:1010B000CB004608CC001030CC36CB0CCA0C890BC8
:1010C0005C284A08CD004D08D3068030CA004A0883
:1010D000D305C817FF30C705FF30C8050030C90564
:1010E000C517FF30C405FF30C5050030C6051830F0
:1010F000CA004A08CE000130CF35D00DD10D890B82
:101100007C2846084902031D8B2845084802031D18
:101110008B2844084702031C94284408C70245084A
:10112000C83B4608C93B4F140130C735C80DC90D2F
:10113000890B95280130CE02031D7B284F08F00053
:101140005008F1005108F2005208CA004A08F300A2
:101150005308CB004B08F4009F313F277008200054
:10116000C4007108C5007208C600080021003608D6
:10117000B9003708BA003808BB0003103A0D3B0D20
:10118000BC003C08C100C108031DCD280030B300DD
:101190000030B4000030B50008003308B90034084E
:1011A000BA003508BB0003103A0D3B0DBC003C08EB
:1011B000C200C208031DE3280030B3000030B400B1
:1011C0000030B50008000030BE000030BF00003025
:1011D000C00089304207B9003908C1023608B90099
:1011E0003708BA003808BB001030BB36BA0CB90C4F
:1011F000890BF5283908BC003C08C2003308B90047
:101200003408BA003508BB001030BB36BA0CB90C34
:10121000890B05293908BC003C08C2068030B9009A
:101220003908C205B717FF30B605FF30B7050030E3
:10123000B805B417FF30B305FF30B4050030B5056D
:101240001830B9003908BD000130BE35BF0DC00DE2
:10125000890B252935083802031D34293408370243
:10126000031D342933083602031C3D293308B60216
:101270003408B73B3508B83B3E140130B635B70DDE
:10128000B80D890B3E290130BD02031D24293E08FB
:10129000A3003F08A4004008A5004108B900390890
:1012A000A6004208BA003A08A7009F319F272100F4
:1012B0002308B3002408B4002508B5000800200066
:1012C0002408AA002508AB002608AC0003102B0D4B
:1012D0002C0DAD002D08AE00AE08031D76290030A0
:1012E000A4000030A5000030A60008002708AA00CE
:1012F0002808AB002908AC0003102B0D2C0DAD0005
:101300002D08B300B308031D8C290030A400003061
:10131000A5000030A600080033087B3EAA002A087A
:10132000AE072408AA002508AB002608AC00103040
:10133000AC36AB0CAA0C890B98292A08AD002D08F5
:10134000B3002708AA002808AB002908AC00103019
:10135000AC36AB0CAA0C890BA8292A08AD002D08C5
:10136000B3068030AA002A08B305A517A817FF30D6
:10137000A705FF30A8050030A9050030AF000030F8
:10138000B0000030B1000730AA002A08B200241CC7
:10139000CF292708AF072808B03D2908B13D013003
:1013A000A636A50CA40C890BD0290130A735A80DB1
:1013B000A90D890BD6290130B202031DC7290930B6
:1013C000AA002A08B200241CEB292708AF07280826
:1013D000B03D2908B13D0130A636A50CA40C890BFF
:1013E000EC290130B136B00CAF0C890BF229013079
:1013F000B202031DE3292F08F0003008F100310884
:10140000F2002E08AA002A08F3003308AB002B08CC
:10141000F4009F313F2770082000A4007108A50048
:101420007208A60008002100D901E201E20A2200A8
:10143000C6012100D901073059020318C22A003021
:10144000AF000F30AE004230AD004030AC003B0882
:10145000A6003C08A7003D08A8006208BF00C00124
:10146000C1013F08A3004008A4004108A50098312D
:10147000C2208A3121002308C2002408C3002508A5
:10148000C400C5014508B3004408B2004308B100D8
:101490004208B0009331A3238A3121002C08C600F2
:1014A0004608D8003E08BF00C001BF09C009BF0AF6
:1014B0000319C00A3F08073EC1000030403DC2008A
:1014C000590841064204031D6B2A2C3023009A0060
:1014D0002000111E682A210058080319732A2200CF
:1014E000C601C60A210022004608013A031D802ACF
:1014F00021005808303E23009A002000111E7D2A4A
:1015000000302100AF000F30AE004230AD0040305F
:10151000AC003B08A6003C08A7003D08A8006208F4
:10152000BF00C001C1013F08A3004008A40041085A
:10153000A5009831C2208A3121002308C200240866
:10154000C3002508C400C5014508B3004408B20023
:101550004308B1004208B000913156218A31210080
:101560002E08BD002D08BC002C08BB000A30BF00AF
:101570003F08E2000130BF003F08D9070730590299
:10158000031C1F2A203023009A002000111A080093
:10159000C52A053021009D000B30FD006230FC00A3
:1015A000FC0BD02AFD0BD02A000021009D149D18B1
:1015B000D72A12302000A4008330A5003A30A600BC
:1015C00021001C08F901F9071B08F801F807A531EB
:1015D000D8258A3178082000A7007908A8007A0861
:1015E000A90089315F218A31200024082100DA0016
:1015F000200025082100DB00200026082100DC0057
:101600005A082000A40021005B082000A50021004A
:101610005C082000A60021005A082000A700210035
:101620005B082000A80021005C082000A900893187
:101630005F218A3120002408C4002508C50026083F
:10164000C60021005A082000A70021005B082000E6
:10165000A80021005C082000A9002930A400033064
:10166000A5004230A60089315F218A31200024087C
:10167000B4002508B5002608B600A531AB258A318F
:1016800020003408B7003508B8003608B9007130BA
:10169000A4000D30A5004030A6004408A70045086E
:1016A000A8004608A90089315F218A31200024085A
:1016B000BA002508BB002608BC008431CA248A3140
:1016C00020003708C7003808C8003908C9001A3098
:1016D000B700BA30B8004230B9004708BA0048082D
:1016E000BB004908BC008431CA242000370822000E
:1016F000D300200038082200D4002000390822003E
:10170000D5000800093021009D000B30FD0062303B
:10171000FC00FC0B892BFD0B892B000021009D1484
:101720009D18902B12302000A4008330A5003A3081
:10173000A60021001C08F901F9071B08F801F807A9
:10174000A531D8258B3178082000A7007908A8009A
:101750007A08A90089315F218B31200024082100FB
:10176000DA00200025082100DB00200026082100E7
:10177000DC005A082000A40021005B082000A5001E
:1017800021005C082000A60021005A082000A700C4
:1017900021005B082000A80021005C082000A900AF
:1017A00089315F218B3120002408C4002508C50041
:1017B0002608C60021005A082000A70021005B0867
:1017C0002000A80021005C082000A9002930A40006
:1017D0000330A5004230A60089315F218B31200003
:1017E0002408B4002508B5002608B600A531AB25AD
:1017F0008B3120003408B7003508B8003608B9002E
:101800007130A4000D30A5004030A6004408A700A8
:101810004508A8004608A90089315F218B312000C6
:101820002408BA002508BB002608BC008431CA245D
:101830008B3120003708C7003808C8003908C900B4
:101840001A30B700BA30B8004230B9004708BA00C1
:101850004808BB004908BC008431CA24200037086E
:101860002200D600200038082200D70020003908C6
:101870002200D800080021005D03FF3A0A3EF00074
:101880007008CF00D2015D0852020318D92C4E080F
:10189000F0007008D800D301083053020318762CEA
:1018A00058088039F0007008D000D008031D5F2C64
:1018B00022000C17000022000C130000692C2200EB
:1018C0000C170000000000000000000022000C13B4
:1018D000000021005835F0007008D8000130F000F9
:1018E0007008D30708305302031C502C6408F00022
:1018F0007008D800D301083053020318A52C5808EB
:101900008039F0007008D000D008031D8E2C220012
:101910000C17000022000C130000982C22000C175A
:101920000000000000000000000022000C13000076
:1019300021005835F0007008D8000130F000700820
:10194000D30708305302031C7F2C5E08F000700898
:10195000D800D301083053020318D42C580880391A
:10196000F0007008D000D008031DBD2C22000C1719
:10197000000022000C130000C72C22000C170000EE
:10198000000000000000000022000C1300002100F5
:101990005835F0007008D8000130F0007008D30707
:1019A00008305302031CAE2C0130F0007008D2073F
:1019B000432CD2014F08520203180800D3011830FB
:1019C00053020318F22C22000C17000022000C1303
:1019D00000000130F00070082100D30718305302D6
:1019E000031CE32C0130F0007008D207DA2C210030
:1019F0005D03FF3A0A3EA3002308CF00D2015D0831
:101A000052020318952D4E08A3002308D800D301D5
:101A1000083053020318322D58088039A3002308D8
:101A2000D000D008031D1B2D22000C17000022003F
:101A30000C130000252D22000C17000000000000F0
:101A40000000000022000C13000021005835A30004
:101A50002308D8000130A3002308D307083053021D
:101A6000031C0C2D6408A3002308D800D301083000
:101A700053020318612D58088039A3002308D000B1
:101A8000D008031D4A2D22000C17000022000C1361
:101A90000000542D22000C17000000000000000080
:101AA000000022000C13000021005835A300230879
:101AB000D8000130A3002308D30708305302031CC9
:101AC0003B2D5E08A3002308D800D3010830530241
:101AD0000318902D58088039A3002308D000D0089F
:101AE000031D792D22000C17000022000C130000AA
:101AF000832D22000C1700000000000000000000F1
:101B000022000C13000021005835A3002308D80040
:101B10000130A3002308D30708305302031C6A2DA9
:101B20000130A3002308D207FF2CD2014F08520234
:101B300003180800D301183053020318AE2D2200F9
:101B40000C17000022000C13000001302100A3003C
:101B50002308D30718305302031C9F2D0130A30024
:101B60002308D207962D2100D901E201E20A2200C2
:101B7000C6012100D9010730590203186E2E00302A
:101B80002000A3000F30A2004230A1004030A0008E
:101B90006208F3006308F4006408F500210062089D
:101BA0002000E600E701E8016608F0006708F100A0
:101BB0006808F20098319C208D3170082000E900FF
:101BC0007108EA007208EB00EC016C08A7006B08D2
:101BD000A6006A08A5006908A400933121238D316D
:101BE00020002008ED006D082100D80020006508C5
:101BF000E600E701E609E709E60A0319E70A6608CD
:101C0000073EE8000030673DE90021005908200048
:101C100068066904031D122E2C3023009A00200050
:101C2000111E0F2E2100580803191A2E2200C6017A
:101C3000C60A210022004608013A031D272E210072
:101C40005808303E23009A002000111E242E003038
:101C50002000A3000F30A2004230A1004030A000BD
:101C60006208F3006308F4006408F50021006208CC
:101C70002000E600E701E8016608F0006708F100CF
:101C80006808F20098319C208D3170082000E9002E
:101C90007108EA007208EB00EC016C08A7006B0801
:101CA000A6006A08A5006908A4009031E8208D31DB
:101CB00020002208E4002108E3002008E2000A30A6
:101CC000E60066082100E20001302000E600660818
:101CD0002100D90707305902031CBF2D20302300F3
:101CE0009A002000111A0800712E2100CD015D0319
:101CF000FF3A043EF0007008CF00D2015D085202A6
:101D000003181A2F22006508F00070082100D8007F
:101D1000D301083053020318B32E58088039F0005D
:101D20007008D000D008031D9C2E22000E14000065
:101D300022000E100000A62E22000E14000000004B
:101D400000000000000022000E10000021005835A5
:101D5000F0007008D8000130F0007008D307083098
:101D60005302031C8D2E22004108F0007008210050
:101D7000D800D301083053020318E42E58088039E4
:101D8000F0007008D000D008031DCD2E22000E14E4
:101D9000000022000E100000D72E22000E140000BA
:101DA000000000000000000022000E1000002100D2
:101DB0005835F0007008D8000130F0007008D307E3
:101DC00008305302031CBE2E22005F08F00070088A
:101DD0002100D800D301083053020318152F5808EA
:101DE0008039F0007008D000D008031DFE2E2200BC
:101DF0000E14000022000E100000082F22000E1406
:101E00000000000000000000000022000E10000092
:101E100021005835F0007008D8000130F00070083B
:101E2000D30708305302031CEF2E0130F000700876
:101E3000D2077E2ED2014F08520203180800D301A8
:101E4000183053020318332F22000E140000220012
:101E50000E1000000130F00070082100D307183088
:101E60005302031C242F0130F0007008D2071B2FEF
:101E700021006808B200B301B209B309B20A03191C
:101E8000B30A67083207A90033080318330AAA0007
:101E90006808B400B501B409B509B40A0319B50A54
:101EA00065083407A30035080318350AA400643018
:101EB000A5000030A600A73142278F312100240859
:101EC000AC01AC072308AB01AB079D311C258F315A
:101ED00021002908B6003608E9006908643A031DA4
:101EE000782F0A30B2003208DD008C31F724080068
:101EF0006430210069020318882F57306902031CDF
:101F0000882F0930B2003208DD008C31F724080038
:101F10005730210069020318982F4B306902031CC7
:101F2000982F0830B2003208DD008C31F724080009
:101F30004B30210069020318A82F3E306902031CB0
:101F4000A82F0730B2003208DD008C31F7240800DA
:101F50003E30210069020318B82F32306902031C99
:101F6000B82F0630B2003208DD008C31F7240800AB
:101F70003230210069020318C82F25306902031C82
:101F8000C82F0530B2003208DD008C31F72408007C
:101F90002530210069020318D82F19306902031C6B
:101FA000D82F0430B2003208DD008C31F72408004D
:101FB0001930210069020318E82F0C306902031C54
:101FC000E82F0330B2003208DD008C31F72408001E
:101FD0000C30210069020318F72F69080319F72F45
:101FE0000230B2003208DD008C31F72408002100F5
:101FF000E908031D0800DD01DD0A8C31F724080023
:102000002100A300A308031D0E288F12983106207B
:10201000903121008F16A531CF2508008F12A531F0
:10202000CF25903121008F16983106200800083006
:10203000F10071082100D200103052020318342838
:10204000A6316E269031F10021005208B03E860084
:1020500001308700710881000130F1007108D2075A
:1020600010305202031C2028D201083052020318FB
:102070004D28A6316E269031F10021005208B03E65
:10208000860001308700710881000130F10071087D
:10209000D20708305202031C39280830F1007108B9
:1020A000D2001030520203186928A6316E269031F2
:1020B000F10021005208A03E86000130870071081F
:1020C00081000130F1007108D20710305202031C68
:1020D0005528D2010830520203180800A6316E2696
:1020E0009031F10021005208A03E860001308700A7
:1020F000710881000130F1007108D2076A280130AF
:1021000021009D000B30FD006230FC00FC0B862896
:10211000FD0B8628000021009D149D188D2812308B
:102120002000A4008330A5003A30A60021001C083E
:10213000F901F9071B08F801F807A531D8259031F6
:1021400078082000A7007908A8007A08A90089313A
:102150005F219031200024082100DA0020002508AA
:102160002100DB00200026082100DC00D730200001
:10217000C4002330C5003C30C6000030B70000303A
:10218000B800BF30B90021005A082000BA00210071
:102190005B082000BB0021005C082000BC008431EB
:1021A000CA24903120003708C7003808C800390811
:1021B000C90088310D20200044082200A30020001F
:1021C00045082200A400200046082200A5000800BF
:1021D000FB012000A71FF928A409A509A609A70942
:1021E000A40A0319A50A0319A60A0319A70AFB01E1
:1021F000FB0AA31F0629A009A109A209A309A00A95
:102200000319A10A0319A20A0319A30A2308220425
:102210002104200403193F29FA01FA0AA31B1C29EF
:102220000130A035A10DA20DA30D890B112901309C
:10223000F9007908FA070E2923082702031D2A2925
:1022400022082602031D2A2921082502031D2A2906
:1022500020082402031C34292008A4022108A53BDD
:102260002208A63B2308A73B0130A336A20CA10CF1
:10227000A00C890B35290130FA02031D1C297B08AB
:1022800003194D29A409A509A609A709A40A031938
:10229000A50A0319A60A0319A70A2708A3002608F6
:1022A000A2002508A1002408A00008002100B60112
:1022B000B31F6729B009B109B209B309B00A0319FC
:1022C000B10A0319B20A0319B30AB601B60AAF1F5D
:1022D0007429AC09AD09AE09AF09AC0A0319AD0AFE
:1022E0000319AE0A0319AF0A2F082E042D042C047B
:1022F0000319AD29B501B50AAF1B8A290130AC35E8
:10230000AD0DAE0DAF0D890B7F290130B40034083F
:10231000B5077C292F083302031D98292E083202A5
:10232000031D98292D083102031D98292C0830021D
:10233000031CA2292C08B0022D08B13B2E08B23B89
:102340002F08B33B0130AF36AE0CAD0CAC0C890B93
:10235000A3290130B502031D8A2936080319BB29B8
:10236000B009B109B209B309B00A0319B10A0319D6
:10237000B20A0319B30A3308AF003208AE003108BD
:10238000AD003008AC00080021006508A631EE263B
:10239000913121002B08C3002C08C4002D08C50072
:1023A000220050082100AE00220051082100AF0099
:1023B000220052082100B0000030AB008030AC0099
:1023C000BF30AD008331D423913121002B08C600EA
:1023D0002C08C7002D08C8009B3138239131031801
:1023E000F42996313D26080000302100AB008030F2
:1023F000AC003F30AD00220050082100AE002200AA
:1024000051082100AF00220052082100B0008331A2
:10241000D423913121002B08C3002C08C4002D08BF
:10242000C5006508A631EE26913121002B08C600B3
:102430002C08C7002D08C8009B31382391310318A0
:10244000242A8731692708002200E201E20AE40118
:10245000E40A2500910198012100D5012200B20172
:10246000B3012100D601080021006508A631A0268D
:10247000923178082000D4007908D5007A08D60077
:10248000220050082000BA00220051082000BB00A2
:10249000220052082000BC000030B7008030B80095
:1024A000BF30B9008431CA24923120003708D700E8
:1024B0003808D8003908D9009A31FC229231031823
:1024C000642A94312524080000302000B7008030B1
:1024D000B8003F30B900220050082000BA002200A6
:1024E00051082000BB00220052082000BC008431AB
:1024F000CA24923120003708D4003808D5003908A2
:10250000D60021006508A631A02692317808200067
:10251000D7007908D8007A08D9009A31FC22923184
:102520000318952A9431AA2408002200E201E20A45
:10253000E401E40A2500910198012100D50122005F
:10254000B201B3012100D601080023003F08013A7F
:10255000031DCA2A2100D2010F3052020318CA2AD1
:102560005208B03E8600013087000108003A003072
:1025700003190130F0005208B03E86000130870098
:10258000700881000130F0007008D2070F3052024D
:10259000031CB02A2300AF012100D20110305202E7
:1025A0000318F72A22005C08F1005B08F000F136FE
:1025B000F00C7008DB007108DC0021005208A03E1E
:1025C0008600013087000108013A031DEE2A003021
:1025D00022005B04DB0080305C04DC000130F00092
:1025E00070082100D20710305202031CD22A2300A7
:1025F000BF012100D201103052020318080022004E
:102600003708F1003608F000F136F00C7008B6001B
:102610007108B70021005208B03E860001308700E3
:102620000108013A031D1B2B003022003604B600BE
:1026300080303704B7000130F00070082100D20765
:10264000FB2A2000A901A31F322BA009A109A2097E
:10265000A309A00A0319A10A0319A20A0319A30ACC
:10266000A901A90AA71F432BA409A509A609A7091F
:10267000A40A0319A50A0319A60A0319A70A013017
:10268000F9007908A9060030AD000030AC00003038
:10269000AB000030AA0023082204210420040319FF
:1026A0008C2BA801A80AA31B612B0130A035A10D1A
:1026B000A20DA30D890B562B0130F9007908A8074C
:1026C000532B0130AA35AB0DAC0DAD0D890B622B30
:1026D00023082702031D762B22082602031D762BD2
:1026E00021082502031D762B20082402031C812BC0
:1026F0002008A4022108A53B2208A63B2308A73BEB
:102700002A140130A336A20CA10CA00C890B822B39
:102710000130A802031D612B290803199A2BAA096D
:10272000AB09AC09AD09AA0A0319AB0A0319AC0A33
:102730000319AD0A2D08A3002C08A2002B08A10044
:102740002A08A00008002100B601AF1FB42BAC0975
:10275000AD09AE09AF09AC0A0319AD0A0319AE0AF7
:102760000319AF0AB601B60AB31FC52BB009B109E8
:10277000B209B309B00A0319B10A0319B20A03195D
:10278000B30A0130B4003408B6060030BA00003095
:10279000B9000030B8000030B7002F082E042D0417
:1027A0002C0403190E2CB501B50AAF1BE32B013025
:1027B000AC35AD0DAE0DAF0D890BD82B0130B4008B
:1027C0003408B507D52B0130B735B80DB90DBA0DA2
:1027D000890BE42B2F083302031DF82B2E0832023D
:1027E000031DF82B2D083102031DF82B2C08300295
:1027F000031C032C2C08B0022D08B13B2E08B23B61
:102800002F08B33B37140130AF36AE0CAD0CAC0C17
:10281000890B042C0130B502031DE32B3608031984
:102820001C2CB709B809B909BA09B70A0319B80ABB
:102830000319B90A0319BA0A3A08AF003908AE00F9
:102840003808AD003708AC00080022006208013AE1
:10285000031D3D2CE201E401E40A250091019801E9
:1028600022008C130C16B201B3012100D6010530F1
:102870002000DD005D082100D500D7302000C40015
:10288000A330C5003B30C60021006A08A631A0264F
:10289000943178082000C7007908C8007A08C90078
:1028A00088310D20943120004408D4004508D5001B
:1028B0004608D60022003308F901F9073208F8016A
:1028C000F807A531D825943178082000D700790879
:1028D000D8007A08D9009A31FC2294310318762C5A
:1028E0002200B201B3012100D601D60A2100560808
:1028F000013A031D080057082000DD00DE01DD0954
:10290000DE09DD0A0319DE0A2100630820005D07E5
:10291000DF005E0803185E0AE0006008803AE1000C
:1029200080306102031D982C2100550820005F02B1
:10293000031CA12C210057082000DD005D082100A8
:10294000D5072100630825009100210055082500C6
:102950009800080022006408013A031DC22CE4011B
:10296000E201E20A25009101980122008C170C1265
:10297000B201B3012100D60105302000DD005D0861
:102980002100D50012302000C4000330C5003A30C9
:10299000C60021006A08A631A026943178082000DC
:1029A000C7007908C8007A08C90088310D20943121
:1029B00020004408D4004508D5004608D60022006F
:1029C0003308F901F9073208F801F807A531D825CD
:1029D000943178082000D7007908D8007A08D90007
:1029E0009A31FC2294310318FB2C2200B201B3016E
:1029F0002100D601D60A21005608013A031D08001D
:102A000057082000DD00DE01DD09DE09DD0A0319BB
:102A1000DE0A2100630820005D07DF005E0803185E
:102A20005E0AE0006008803AE10080306102031D28
:102A30001D2D2100550820005F02031C262D2100BA
:102A400057082000DD005D082100D507210055084A
:102A5000250091002100630825009800080020004F
:102A60005408D8005508D9005608DA000310590D4B
:102A70005A0DDB005B08E100E108031D482D003022
:102A8000D7000030D6000030D5000030D400080058
:102A90005408D8005508D9005608DA001730DA363D
:102AA000D90CD80C890B4F2D5808DB005B08DC00D3
:102AB000D517FF30D405FF30D5050030D6055408B2
:102AC000DD005508DE005608DF00E0018E30E1022F
:102AD000E11F862D6108803A8F3E0318782D003063
:102AE000D7000030D6000030D5000030D4000800F8
:102AF0000130E036DF0CDE0CDD0C890B792D013066
:102B0000D8005808E10703199F2D782D183061026D
:102B1000031C9C2D0030D7000030D6000030D500BB
:102B20000030D40008000130DD35DE0DDF0DE00D92
:102B3000890B942D0130E102E108031D932D5C08FF
:102B40000319AD2DDD09DE09DF09E009DD0A0319EE
:102B5000DE0A0319DF0A0319E00A6008D7005F08DC
:102B6000D6005E08D5005D08D4000800F8302100CA
:102B70009900A83020008C008D018E0140308F001C
:102B80009001273021008C0013308D00B0308E0072
:102B90002F308F0007309000273023008C00113039
:102BA0008D008E0103308F00073090009A31C022D3
:102BB000953122001D131D1021000E158E14633057
:102BC00020009B000F30250093000F309A009101E8
:102BD00098012000911005309C00911CED2D2100E2
:102BE0000E118E10CF3022009700813021009D0001
:102BF000F3309E000F309F00883022009800B030E4
:102C0000990084309100AC30920020009212210093
:102C10009216403020009800111096019701181468
:102C20002100951295111508F839033895002000F8
:102C300095010B11333023009B001E119F111E12B2
:102C40009D179E162100911623001D161530FC00BD
:102C5000C630FB00FB0B2A2EFC0B2A2E00002100A5
:102C60005108013A031D372E9731602795319B316A
:102C7000F02395318531C025080022006208013A11
:102C8000031D552EE201E401E40A2500910198019B
:102C900022008C130C16B201B3012100D6010530BD
:102CA0002300C00040082100D500D7302100B30028
:102CB000A330B4003B30B5006A08A631EE26963149
:102CC00021002B08B6002C08B7002D08B800883169
:102CD000B620963121003308C3003408C4003508FB
:102CE000C500220033082100AC01AC0722003208E5
:102CF0002100AB01AB07A6311326963121002B082A
:102D0000C6002C08C7002D08C8009B313823963117
:102D10000318902E2200B201B3012100D601D60A79
:102D200021005608013A031D080057082300C0007F
:102D3000C101C009C109C00A0319C10A2100630801
:102D400023004007C20041080318410AC30043089A
:102D5000803AC40080304402031DB22E2100550881
:102D600023004202031CBB2E210057082300C00091
:102D700040082100D50721006308250091002100AB
:102D800055082500980008006430F0000030F1007C
:102D900022005E08F301F3075D08F201F2079A31A1
:102DA0008A2296317108FD01FD077008FC01FC07BD
:102DB0007D08F101F1077C08F001F00722005C08B2
:102DC000F301F3075B08F201F2079A318A22963188
:102DD00071082200DA01DA077008D901D9075C0806
:102DE000F901F9075B08F801F807A531D8259631F4
:102DF00078082000A7007908A8007A08A9005A30AE
:102E0000A400D030A5004330A60089315F2196315F
:102E100020002408D4002508D5002608D6009531C6
:102E20002F259631200056082200C90020005508A1
:102E30002200C800200054082200C7003708F9010A
:102E4000F9073608F801F807A531D8259631780832
:102E50002000A7007908A8007A08A9006630A4001D
:102E6000D030A5004230A60089315F219631200084
:102E70002408D4002508D5002608D60095312F2532
:102E80009631200056082200A2002000550822009A
:102E9000A100200054082200A00000305A0278301F
:102EA00003195902031C592F7830D9000030DA0079
:102EB00008005A085904031D0800D901DA01080066
:102EC0002100D201220068082100520203180800E4
:102ED00022006608F00070082100D800D3010830F5
:102EE00053020318992F58088039F0007008D00059
:102EF000D008031D822F22008E15000022008E11A3
:102F000000008C2F22008E15000000000000000041
:102F1000000022008E11000021005835F0007008DA
:102F2000D8000130F0007008D30708305302031CAA
:102F3000732F22006A08F00070082100D800D30126
:102F4000083053020318CA2F58088039F00070085F
:102F5000D000D008031DB32F22008E1500002200E0
:102F60008E110000BD2F22008E1500000000000011
:102F70000000000022008E11000021005835F000F2
:102F80007008D8000130F0007008D30708305302F1
:102F9000031CA42F22006008F00070082100D80054
:102FA000D301083053020318FB2F58088039F00072
:102FB0007008D000D008031DE42F22008E150000F9
:102FC00022008E110000EE2F22008E15000000005E
:102FD00000000000000022008E1100002100583582
:102FE000F0007008D8000130F0007008D3070830F6
:102FF0005302031CD52F0130F0007008D207622F56
:10300000640080010131890B012800342000111077
:10301000F530970000309600111808000C28003099
:1030200090310020983100309031002098310030EC
:1030300090310020983100309031002098310130DB
:1030400090310020983100309031002098310030CC
:10305000903100209831003090310020080021008C
:10306000A500A701230803194F28A601A60AA31B40
:1030700040280310A30D0130A4002408A607372818
:103080000310A70D23082502031C4A282308A502C4
:1030900027140310A30C0130A602031D40282708A3
:1030A0000800B03459348C34A0346B34A834B034B4
:1030B00059348C340034A03441340034A0344134C9
:1030C0000034A03441346434003439345634393453
:1030D00056344B344B3401340134013401346434FC
:1030E0004B34043404340A344B3414341E30FD00A1
:1030F0007D082100E5004B30FD007D08E400CE0195
:103100004B30FD007D08DE00CD012200BE01E30151
:10311000E30AE101E10A2100D601D5012200E40120
:10312000E40AE201E20AB201B3019531B6252200B8
:10313000AC01AD01C00108000030F6000030F7001E
:103140000030F800701CAA287308F6077408F73DD1
:103150007508F83D0130F335F40DF50D890BAB28FA
:103160000130F236F10CF00C890BB12872087104B1
:103170007004031DA2287608F0007708F100780893
:10318000F200080000302100A9000030AA00003041
:10319000AB00231CD1282608A9072708AA3D280828
:1031A000AB3D0130A635A70DA80D890BD228013003
:1031B000A536A40CA30C890BD828250824042304C5
:1031C000031DC9282908A3002A08A4002B08A5006C
:1031D0000800803020008C00273021008C001F3038
:1031E00023008C00023020008D00133021008D0060
:1031F00023008D01303020008E00B03021008E0081
:1032000023008E013C3020008F002F3021008F00E2
:1032100023008F010830200090000F302100900023
:10322000230090010800803020008C00273021000E
:103230008C001F3023008C00023020008D001330E2
:1032400021008D0023008D01303020008E00B03031
:1032500021008E0023008E013C3020008F002F3093
:1032600021008F0023008F010830200090000F30D4
:10327000210090002300900108002100D2010F30AE
:10328000520203186329200062080139FC00210062
:103290005208A03E8600013087007C088100200093
:1032A0006308FD006208FC00FD36FC0C7C08E200AF
:1032B0007D08E3000130FC007C082100D2070F30BC
:1032C0005202031C43292300AF01993195210800C4
:1032D0008631A12699318B162200BF012100660894
:1032E000013A031D75298B12630020000F198029F4
:1032F0009B31742399312200AC01AD018B167529E5
:1033000022003C08013A031D8D2978299B31B12305
:1033100099312200AC01AD018B1620008F1D86294A
:103320002200BD0803196B2986290830F1007108B5
:103330002100D2000F3052020318B0295208A03EDB
:103340008600013087000108A631562699310130E8
:10335000F10071082100D2070F305202031C9E2990
:10336000D20108305202031808005208A03E86001D
:10337000013087000108A631562699310130F1004D
:1033800071082100D207B12908302100A4002408C7
:10339000D2000F3052020318DF295208A03E8600E7
:1033A000013087000108903100209931013021005F
:1033B000A4002408D2070F305202031CCD29D201E9
:1033C00008305202031808005208A03E860001305F
:1033D0008700010890310020993101302100A400BC
:1033E0002408D207E0296830F100E430F000F00B47
:1033F000F729F10BF729000020000E1EFC29683088
:10340000F100E430F000F00B032AF10B032A000076
:1034100020000E1E082A6830F100E430F000F00BA6
:103420000F2AF10B0F2A000020000E1E142A68300C
:10343000F100E430F000F00B1B2AF10B1B2A000016
:1034400020000E1A0800202A6830F100E430F00055
:10345000F00B282AF10B282A000020008E1E2D2AAE
:103460006830F100E430F000F00B342AF10B342A1C
:10347000000020008E1E392A6830F100E430F00090
:10348000F00B402AF10B402A000020008E1E452A36
:103490006830F100E430F000F00B4C2AF10B4C2ABC
:1034A000000020008E1A0800512A2100CD08031DBB
:1034B0006A2AD201603052020318802A22000E14B8
:1034C000000022000E1000000130F1007108210000
:1034D000D2075A2A1430F10071082200E500963014
:1034E000F1007108C100DF018E3175266430F100F2
:1034F00071082200E500C1014B30F1007108DF00C6
:1035000021004D08003A003003190130F100710824
:10351000CD000800F501F601710870040319B92AFD
:10352000F701F70AF11B9E2A0130F035F10D890BE6
:10353000952A0130F4007408F707922A0130F53516
:10354000F60D890B9F2A71087302031DA92A7008C2
:103550007202031CB02A7008F2027108F33B751462
:103560000130F136F00C890BB12A0130F702031D4E
:103570009E2A7608F101F1077508F001F0070800AE
:103580002200C101DF01E50121006408F10071089A
:103590002200C30021005E08F10071082200C4006F
:1035A00021004E08F10071082200C5002100E4014D
:1035B000DE01CE01DD018E3175269A318C313B243E
:1035C0002200C1014B30F1007108DF006430F100CE
:1035D0007108E5004308F10071082100E4002200B1
:1035E0004408F10071082100DE0022004508F100C6
:1035F00071082100CE0008002000D61F132B5409AB
:10360000DA005509DB005609DC00DA0A0319DB0A87
:103610000319DC0A00305A07D40000305B3DD500A6
:1036200080305C3DD600D91F292B5709DA00580994
:10363000DB005909DC00DA0A0319DB0A0319DC0A8A
:1036400000305A07D70000305B3DD80080305C3D29
:10365000D9008030D6068030D90659085602031D9D
:10366000080058085502031D0800570854020800B6
:103670002100C51F4F2B4309C9004409CA00450951
:10368000CB00C90A0319CA0A0319CB0A003049073B
:10369000C30000304A3DC40080304B3DC500C81F08
:1036A000652B4609C9004709CA004809CB00C90A69
:1036B0000319CA0A0319CB0A00304907C6000030B3
:1036C0004A3DC70080304B3DC8008030C506803081
:1036D000C80648084502031D080047084402031DA8
:1036E00008004608430208008B12210065086802A2
:1036F00003187F2B0130E502A73109279B312100F8
:10370000D401053054020318A12B96305E02031831
:10371000922B64080319922B0130CC004C08DE0771
:103720000130E4028F3138279B31A631D4269B31FA
:1037300001302100CC004C08D40705305402031C92
:10374000852B9131C4219B3120000F1908002200E4
:10375000BF08031D0800A631BA262200BF01BF0A18
:1037600008008B122100670865020318BE2B013088
:10377000CC004C08E507A73109279B312100D40173
:10378000053054020318E02B5E080319D12B963044
:1037900064020318D12B0130DE020130CC004C084A
:1037A000E4078F3138279B31A631D4269B31013075
:1037B0002100CC004C08D40705305402031CC42B54
:1037C0009131C4219B3120008F1908002200BF08CD
:1037D000031D0800A631BA262200BF01BF0A080057
:1037E000503021006102031CFC2B0430F2007208EF
:1037F000DD008E317526080050302100610203186B
:103800000C2C3C306102031C0C2C0330F2007208BB
:10381000DD008E31752608003C302100610203185E
:103820001C2C28306102031C1C2C0230F200720890
:10383000DD008E3175260800283021006102031852
:103840002A2C0A306102031C2A2CDD01DD0A8E318C
:10385000752608000A302100610203180800DD0106
:10386000DD0A9A31552208000030F7000030F800D8
:103870000030F9007208710470040319712CFA0108
:10388000FA0AF21B4E2C0130F035F10DF20D890BC6
:10389000442C0130F6007608FA07412C0130F73548
:1038A000F80DF90D890B4F2C72087502031D5E2C63
:1038B00071087402031D5E2C70087302031C672CD0
:1038C0007008F3027108F43B7208F53B771401307D
:1038D000F236F10CF00C890B682C0130FA02031D52
:1038E0004E2C7708F0007808F1007908F200080003
:1038F00090317F209C318A31C9229C318B318223C7
:103900009C3100302000C4000030C5004030C600AB
:10391000220056082000B700220057082000B800F7
:10392000220058082000B900220053082000BA00E5
:10393000220054082000BB00220055082000BC00D3
:103940008431CA249C3120003708C7003808C800D9
:103950003908C90088310D209C312000440822001C
:10396000D000200045082200D10020004608220097
:10397000D2009E3122269C319E3181269C319D3180
:1039800070259C319D31C9259C319E31E02608006F
:103990002000A101F71FD32CF609F709F60A031935
:1039A000F70AA101A10AF91FDE2CF809F909F80AA2
:1039B0000319F90A0130FA007A08A106A201A3014D
:1039C0007708760403190D2DA001A00AF71BF22C2D
:1039D0000130F635F70D890BE92C0130FA007A0831
:1039E000A007E62C0130A235A30D890BF32C770834
:1039F0007902031DFD2C76087802031C042D76083D
:103A0000F8027708F93B22140130F736F60C890BDF
:103A1000052D0130A002031DF22C21080319152DDC
:103A2000A209A309A20A0319A30A2308F701F707A9
:103A30002208F601F60708002100AF01AA1F272D72
:103A4000A909AA09A90A0319AA0AAF01AF0AAC1F5A
:103A5000322DAB09AC09AB0A0319AC0A0130AD0039
:103A60002D08AF06B001B1012A0829040319612D00
:103A7000AE01AE0AAA1B462D0130A935AA0D890B4D
:103A80003D2D0130AD002D08AE073A2D0130B03587
:103A9000B10D890B472D2A082C02031D512D290831
:103AA0002B02031C582D2908AB022A08AC3B30140A
:103AB0000130AA36A90C890B592D0130AE02031D25
:103AC000462D2F080319692DB009B109B00A031951
:103AD000B10A3108AA01AA073008A901A9070800FC
:103AE000113021009D000B30FD006230FC00FC0B0A
:103AF000772DFD0B772D000021009D149D187E2D44
:103B000012302000A4008330A5003A30A600210026
:103B10001C08F901F9071B08F801F807A531D82599
:103B20009D3178082000A7007908A8007A08A9002C
:103B300089315F219D31200024082100DA00200016
:103B400025082100DB00200026082100DC000030D1
:103B50002000A4004030A5004030A60021005A08F3
:103B60002000A70021005B082000A80021005C08BD
:103B70002000A90089315F21200024082200A6002E
:103B8000200025082200A700200026082200A80007
:103B90000800193021009D000B30FD006230FC0050
:103BA000FC0BD02DFD0BD02D000021009D149D1885
:103BB000D72D12302000A4008330A5003A30A60093
:103BC00021001C08F901F9071B08F801F807A531C5
:103BD000D8259D3178082000A7007908A8007A0828
:103BE000A90089315F219D31200024082100DA00DD
:103BF000200025082100DB00200026082100DC0031
:103C000000302000A4004030A5004030A600210074
:103C10005A082000A70021005B082000A80021000E
:103C20005C082000A90089315F21200024082200BF
:103C3000A900200025082200AA0020002608220052
:103C4000AB000800153021009D000B30FD006230F4
:103C5000FC00FC0B292EFD0B292E000021009D14D9
:103C60009D18302E12302000A4008330A5003A3079
:103C7000A60021001C08F901F9071B08F801F80744
:103C8000A531D8259E3178082000A7007908A80022
:103C90007A08A90089315F219E3120002408210083
:103CA000DA00200025082100DB0020002608210082
:103CB000DC005A082000A70021005B082000A800B3
:103CC00021005C082000A9000030A4007A30A50083
:103CD0004430A60089315F219E3120002408D400A1
:103CE0002508D5002608D60095312F252000550837
:103CF0002200B901B907200054082200B801B80712
:103D000008001D3021009D000B30FD006230FC00DA
:103D1000FC0B882EFD0B882E000021009D149D18A1
:103D20008F2E12302000A4008330A5003A30A60068
:103D300021001C08F901F9071B08F801F807A53153
:103D4000D8259E3178082000A7007908A8007A08B5
:103D5000A90089315F219E31200024082100DA006A
:103D6000200025082100DB00200026082100DC00BF
:103D70005A082000A70021005B082000A8002100AD
:103D80005C082000A9000030A4007A30A50044306F
:103D9000A60089315F219E3120002408D400250827
:103DA000D5002608D60095312F2520005508220081
:103DB000BB01BB07200054082200BA01BA07080063
:103DC0002D3021009D000B30FD006230FC00FC0B0B
:103DD000E72EFD0BE72E000021009D149D18EE2E0E
:103DE00012302000A4008330A5003A30A600210044
:103DF0001C08F901F9071B08F801F807A531D825B7
:103E00009E3178082000A7007908A8007A08A90048
:103E100089315F219E31200024082100DA00200032
:103E200025082100DB00200026082100DC005A08BC
:103E30002000A70021005B082000A80021005C08EA
:103E40002000A9004030A4001C30A5004630A60088
:103E500089315F219E3120002408D4002508D50037
:103E60002608D60095312F25200055082200B501DF
:103E7000B507200054082200B401B40708007308F5
:103E80000319472F720871047004031D582F003066
:103E9000F0000030F1000030F20008000130F500C1
:103EA0007508F3070130F236F10CF00C890B532F33
:103EB000FE3072050319712F4E2F0130F500750881
:103EC000F3070130F007003003180130F10700302C
:103ED00003180130F2070130F236F10CF00C890BB7
:103EE0006C2FFF30720503197E2F5D2F0130F30216
:103EF0000130F035F10DF20D890B792FF11F762F7E
:103F00007318882FFF30F0057F30F105FF30F20580
:103F10000310F30C7308F500F601F7011030F535C6
:103F2000F60DF70D890B8F2F7508F0047608F10454
:103F30007708F204740803190800F217080021003A
:103F400026080319A82F250824042304031DB92FCC
:103F50000030A3000030A4000030A50008000130AC
:103F6000A8002808A6070130A536A40CA30C890BCD
:103F7000B42FFE3025050319D22FAF2F0130A80032
:103F80002808A6070130A307003003180130A40752
:103F9000003003180130A5070130A536A40CA30C8E
:103FA000890BCD2FFF3025050319DF2FBE2F0130E0
:103FB000A6020130A335A40DA50D890BDA2FA41F8D
:103FC000D72F2618E92FFF30A3057F30A405FF3037
:103FD000A5050310A60C2608A800A901AA01103007
:103FE000A835A90DAA0D890BF02F2808A3042908CC
:103FF000A4042A08A504270803190800A517080027
:104AF000FE0012001E00FE0B792D00342000111064
:104B0000FF3097000030960011180800842D200017
:104B10001110F530970000309600111808008D2D07
:104B200020001110C83097000030960011180800BE
:104B3000962D20001110A630970000309600111815
:104B400008009F2D20001110F6309700403096008D
:104B500011180800A82D2000360835043404031964
:104B600008008030B606080020001110C8309700F9
:104B70000030960011180800BA2D20001110A63040
:104B800097000030960011180800C32D2000111066
:104B9000F63097004030960011180800CC2D200008
:104BA0001110FF3097000030960011180800D52D25
:104BB0007808F0007908F100F2018E30FB007B08E4
:104BC000F300F4019F313F277008F8007108F900E5
:104BD0007208FA0008007808F0007908F1007A08F5
:104BE000F2008E30FB007B08F300F4019F313F2779
:104BF0007008F8007108F9007208FA000800230034
:104C000091012100510823009300951315131515E8
:104C100055309600AA3096009514151195180E2E51
:104C200020001212080021002B08A3002C08A40069
:104C3000A5018E30AE002E08A600A7019F319F2748
:104C400021002308AB002408AC002508AD000800B3
:104C50002200C20120008F1221008F12A531992558
:104C6000A63121008F16A531A225A63120008F1A6A
:104C70003C2E2200C201C20AA53190250800220064
:104C8000C20120008F1221008F12A531BD25A6314F
:104C900021008F16A531C625A63120008F1A532E6C
:104CA0002200C201C20AA531B4250800F000F008B4
:104CB000031D642E21008F12A5318725A631210006
:104CC0008F16A5317E25080021008F12A5317E2583
:104CD000A63121008F16A5318725080021008F12EB
:104CE0000530F000F00B722E21008F160A30F00014
:104CF000F00B782E000020008F1E822EA531872514
:104D000001300800A531872500300800A63128268B
:104D1000A63122004208013A031D0800A731A0274E
:104D2000A631A7316027A631A7318027A63190315F
:104D30001720A6319231A522A6319631C42608004B
:104D4000FB007B082000A000A101A2012008F000C8
:104D50002108F1002208F2008E30A3002308F3009E
:104D6000F4019F313F277008F8007108F9007208BC
:104D7000FA0008002100D201613052020318D12E3E
:104D800020001110960197011118C82E8B16C42E01
:104D900001302100A3002308D20761305202031C16
:104DA000C02E0B118B1208002100D20118305202C4
:104DB0000318EB2E20001110960197011118E22E16
:104DC0008B16DE2E01302100A3002308D2071830F5
:104DD0005202031CDA2E0B118B1208002100B200C4
:104DE0003208AE00AF01B0012E08A3002F08A400C6
:104DF0003008A5008E30B1003108A600A7019F3110
:104E00009F2721002308AB002408AC002508AD0033
:104E1000080021006508C700C801C9014708BB0098
:104E20004808BC004908BD00BE018A311322A731E1
:104E30000D3023009A002000111E1B2F0A30230082
:104E40009A002000111A0800212FF401F501701CAE
:104E50002D2F7208F4077308F53D0130F235F30D7C
:104E6000890B2E2F0130F136F00C890B332F71088E
:104E70007004031D272F7508F101F1077408F00174
:104E8000F00708002100A701A801231C4B2F2508CB
:104E9000A7072608A83D0130A535A60D890B4C2F84
:104EA0000130A436A30C890B512F24082304031DC1
:104EB000452F2808A401A4072708A301A307080079
:104EC0000130A6315626A7310030A6315626A7312B
:104ED0000030A6315626A7310130A6315626A7311B
:104EE0000030A6315626A7310130A6315626A7310B
:104EF0000130A6315626A7310030A63156260800CB
:104F00000030A6315626A7310130A6315626A731EA
:104F10000130A6315626A7310130A6315626A731D9
:104F20000030A6315626A7310030A6315626A731CB
:104F30000030A6315626A7310030A631562608008B
:104F40000030A6315626A7310030A6315626A731AB
:104F50000130A6315626A7310130A6315626A73199
:104F60000030A6315626A7310030A6315626A7318B
:104F70000130A6315626A7310130A6315626080049
:104F8000003090310020A731003090310020A7314F
:104F9000013090310020A731013090310020A7313D
:104FA000003090310020A731003090310020A7312F
:104FB000013090310020A7310130903100200800ED
:104FC000003090310020A731003090310020A7310F
:104FD000013090310020A731013090310020A731FD
:104FE000003090310020A731013090310020A731EE
:104FF000013090310020A7310030903100200800AE
:020000040001F9
:04000E00E4C9FFDC66
:00000001FF
